:020000040800F2
:1000000000000120D1350008153000081730000825
:10001000193000081B3000081D30000800000000E7
:100020000000000000000000000000001F30000879
:1000300021300008000000002330000825300008AF
:100040001936000819360008193600081936000854
:100050001936000819360008193600081936000844
:100060001936000819360008193600081936000834
:100070001936000819360008193600081936000824
:100080001936000819360008193600081936000814
:100090001936000819360008193600081936000804
:1000A00019360008193600081936000819360008F4
:1000B00019360008193600081936000819360008E4
:1000C00019360008193600081936000819360008D4
:1000D00019360008193600081936000819360008C4
:1000E000193600081936000819360008000000000B
:1000F0000000000000000000000000000000000000
:100100000000000000000000193600081936000841
:100110001936000819360008193600081936000883
:100120001936000819360008193600081936000873
:100130001936000819360008193600081936000863
:100140001936000819360008193600082930000849
:10015000000000000000000000000000000000009F
:10016000000000000000000000000000000000008F
:10017000000000000000000000000000000000007F
:10018000000000000000000000000000000000006F
:10019000000000000000000000000000000000005F
:1001A000000000000000000000000000000000004F
:1001B000000000000000000000000000000000003F
:1001C000000000000000000000000000000000002F
:1001D000000000000000000000000000000000001F
:0401E0005FF8E0F1F3
:1001E40010B5054C237833B9044B13B10448AFF36D
:1001F40000800123237010BD2001002000000000B6
:100204008C36000808B5034B1BB103490348AFF310
:10021400008008BD00000000240100208C36000886
:1002240053B94AB9002908BF00281CBF4FF0FF3159
:100234004FF0FF3000F074B9ADF1080C6DE904CE55
:1002440000F006F8DDF804E0DDE9022304B07047AD
:100254002DE9F0478C460446089E002B4BD18A4278
:10026400154667D9B2FA82F24AB1C2F1200701FAFF
:1002740002F320FA07F7954047EA030C94404FEA4B
:10028400154EBCFBFEF71FFA85F80EFB17C307FBE0
:1002940008F9210C41EA0343994509D9EB1807F100
:1002A400FF3180F01C81994540F21981023F2B44B3
:1002B400A3EB0903B3FBFEF00EFB103300FB08F1C4
:1002C400A4B244EA0344A14209D92C1900F1FF3332
:1002D40080F00781A14240F2048102382C4440EAB4
:1002E40007400027641A1EB10023D440C6E9004326
:1002F4003946BDE8F0878B4209D9002E00F0EC8026
:100304000027C6E9000138463946BDE8F087B3FA4C
:1003140083F7002F48D18B4202D3824200F2FB8044
:10032400841A61EB030301209C46002EE0D0C6E949
:10033400004CDDE702B9FFDEB2FA82F2002A40F097
:100344008F800127491B4FEA15481FFA85F9B1FB35
:10035400F8FE08FB1E1109FB0EF04FEA144C4CEAA0
:100364000143984207D9EB180EF1FF3102D29842AB
:1003740000F2CD808E461B1AB3FBF8F008FB103355
:1003840009FB00F9A4B244EA0344A14507D92C1996
:1003940000F1FF3302D2A14500F2B6801846A4EB67
:1003A400090440EA0E409EE7C7F12005BB4022FA4B
:1003B40005FC4CEA030C21FA05F44FEA1C4EB4FB8D
:1003C400FEF91FFA8CF80EFB194420FA05F3B94024
:1003D40009FB08FA19430B0C43EA0444A24502FA48
:1003E40007F200FA07F30BD91CEB040409F1FF3000
:1003F40080F08880A24540F28580A9F10209644416
:10040400A4EB0A04B4FBFEF00EFB104400FB08FA54
:1004140089B241EA0444A24508D91CEB040400F162
:10042400FF316BD2A24569D90238644440EA0940DD
:10043400A0FB0289A4EB0A044C454146CE4654D3A2
:1004440051D0002E69D05A1A64EB0E0404FA05F553
:1004540022FA07F3FC401D43C6E90054002747E78E
:100464009540C2F1200321FA03F04FEA1548B0FB8E
:10047400F8F71FFA85F908FB170024FA03F39140F3
:1004840007FB09FC0B43190C41EA00418C4504FAB3
:1004940002F407D9691807F1FF3031D28C452FD9FE
:1004A400023F2944A1EB0C01B1FBF8F008FB101C3E
:1004B40000FB09FE99B241EA0C418E4507D969183F
:1004C40000F1FF3318D28E4516D902382944A1EB26
:1004D4000E0140EA07473AE73746304608E70F4639
:1004E400E6E61846FBE64345ABD2B8EB020169EBFE
:1004F4000C0201389646A4E71846E8E7084695E753
:100504000746CFE781467BE702382C4447E7AEF144
:10051400020E2B442FE7384607E73746E8E600BFCC
:10052400704700BF4FF47A7370B50D4E05463078AE
:100534000C4AB3FBF0F31068B0FBF3F000F09CF846
:10054400044650B90F2D08D8024629464FF0FF3013
:1005540000F052F82046756070BD0120FCE700BF32
:1005640000000020AC000020074A08B513680320EF
:1005740043F01003136000F02DF80020FFF7D2FFC2
:1005840002F024FD002008BD00200240034A044B71
:1005940011681B780B441360704700BFB00900203A
:1005A40000000020014B1868704700BFB00900200C
:1005B40038B50446FFF7F6FF0546631C1EBF044B1F
:1005C4001B78E418FFF7EEFF401BA042FAD338BDB6
:1005D40000000020074A0002D36800F4E06023F41E
:1005E400E0631B041B0C43F0BF6343F40033034379
:1005F400D360704700ED00E0174B70B5DC684FF036
:10060400FF36C4F30224C4F10705042D04F10403E6
:1006140028BF0425062B98BF002406FA05F388BFDB
:10062400033C21EA0303A34006FA04F422EA040487
:10063400002843EA0403A8BF00F160404FEA031313
:10064400B8BF064ADBB2B5BF00F00F0000F5614049
:10065400135480F8003370BD00ED00E014ED00E0A9
:100664000123420900F01F0003FA00F0014B43F894
:100674002200704700E100E00138B0F1807F0AD227
:10068400F021064B064A586082F823100020072206
:1006940098601A6070470120704700BF10E000E0C6
:1006A40000ED00E0114AD36813F0100305D010499F
:1006B400CB6943F00203CB611023D268500706D5FF
:1006C4000B4943F00403CA6942F00102CA61074AB4
:1006D400D169C90708D50648C16941F00401C1615F
:1006E400D16921F00101D161D3607047002002403B
:1006F400B8090020064B186910F0800007D0054A9D
:100704005A6002F188325A601869C0F3C010704709
:100714000020024023016745F8B50646FFF742FF73
:10072400114C07462546E368D80712D4E3689906B6
:1007340044BF2023E360EB68DA0606D4EB69DB07E9
:1007440003D4E86810F0040007D0FFF7ABFF0120E2
:1007540003E0731CE7D00EB90320F8BDFFF722FFB6
:10076400C01BB042DFD9F7E7002002402DE9F84F63
:10077400244C1E46237E0546012B0F4690463FD04F
:1007840001234CF250302376FFF7C6FFA0BB012DA6
:1007940003D0022D0CBF022504254FF00009CB46DF
:1007A400DFF864A04FEA0913C3F12001A3F120028A
:1007B40006FA01F128FA03F3C4F81CB00B4326FA35
:1007C40002F21343DAF810209BB242F00102CAF895
:1007D40010204CF2503027F81930FFF79DFFDAF85B
:1007E400103023F00103CAF8103028B909F10109C7
:1007F4005FFA89F39D42D5D800232376BDE8F88FAC
:100804000220FBE7B8090020002002400022064B2A
:10081400DA61064B1A6942F004021A611A6942F05D
:1008240040021A61704700BFB8090020002002404E
:100834000022064BDA61064B1A6942F002021A6181
:1008440058611A6942F040021A617047B8090020E1
:10085400002002402DE9F041224D07462B7E8846B8
:10086400012B3DD0012403682C76022B4CF250302E
:1008740013D1FFF751FF20B1012000232B76BDE8EF
:10088400F081FFF7C3FF4CF25030FFF745FF164AE3
:10089400136923F004031361EFE7FFF73DFF00281A
:1008A400EAD14FF0FF33C8F800302046BE680E4C42
:1008B400D7E9023203EBC223B342DED93046FFF755
:1008C400B7FF4CF25030FFF727FF236923F00203F0
:1008D400236110B1C8F80060CFE706F50066E7E7CA
:1008E4000220CCE7B8090020002002402DE9F74F90
:1008F40000221646654BDFF8A4C1DFF8A4E14FF0EF
:1009040001080C6808FA06F808EA0404A0457ED138
:100914004D68122D00F0AE8000F28780022D00F0A9
:10092400A6807BD8002D00F08D80012D00F09D80E5
:100934004FF00F09FF2C93BF824606F18045083D16
:10094400D0F800B092BFB500D0F804B0AD0009FAF9
:1009540005F82BEA080802FA05F588BF00F1040A35
:1009640048EA0505CAF80050D1F804A01AF0805FDF
:100974004DD0474F26F00308BD6908F1804845F083
:100984000105BD61BD6908F5803805F001050195D3
:1009940006F0030B019D4FEA8B0BD8F8085009FAB7
:1009A4000BF925EA09093B4DA84268D005F5806595
:1009B400A84266D005F58065A84264D005F5806537
:1009C400A8420CBF0325042505FA0BF545EA0905E1
:1009D400C8F808501D681AF4803F14BF2543A54386
:1009E4001D605D681AF4003F14BF2543A5435D6094
:1009F4009D681AF4801F14BF2543A5439D60DD68DC
:100A04001AF4001F14BF2C4325EA0404DC600136E9
:100A1400102E7FF474AF03B0BDE8F08F032D22D005
:100A2400112D85D1CA68043282E71B4FBD4209D01B
:100A340012D8DFF870904D4504D009F580394D4542
:100A44007FF476AF8A68C2B1012A0CBFC0F8108067
:100A5400C0F8148008226BE76545F3D07545F1D0E2
:100A6400DFF84490EBE7002262E7CA6860E7CA68EF
:100A740008325DE7CA680C325AE7042258E70025B9
:100A8400A2E70125A0E702259EE700BF000401407C
:100A94000010024000080140000021100000311045
:100AA4000000321000001110000022100AB1016190
:100AB40070470904FBE72DE9F041044686B000289D
:100AC40060D090F8A93303F0FF021BB980F8A82383
:100AD40002F002FB254603236E4655F8100B84F8FA
:100AE400A93300F051FF0FCD0FC62B6804F10408A1
:100AF400336098E80E00206800F02CFF0021206885
:100B040000F048FF0021234622460126084604F14E
:100B1400100582F82810D18501310F2982F8296047
:100B240082F82B00C2E90C00D06302F11C02F0D160
:100B34000022174683F8E821DA8501320F2A83F868
:100B4400E97183F8EB71C3F8F071C3F8F471C3F879
:100B5400FC7103F11C03EDD16E460FCD0FC62B685B
:100B6400336098E80E00206800F02CFF012384F81D
:100B74002470206884F8A93301F0CAF9002006B073
:100B8400BDE8F0810120FAE790F8A83310B5012BF5
:100B940004460ED0012180F8A81300F018FB206849
:100BA40001F0AAF9206800F0E9FE002084F8A80307
:100BB40010BD0220FCE72DE9F04F066885B004461D
:100BC400304601F0DFF98246002840F014812068A5
:100BD40001F0AAF9002800F00E81206801F0A4F9C0
:100BE400850744BF02222368206848BF5A6101F088
:100BF4009BF910F4002509D0206801F099F900252B
:100C0400074606F53068002F40F0F880206801F0B0
:100C14008BF941030BD5206801F092F927468346EE
:100C2400002506F51069BBF1000F40F00F81206824
:100C340001F07AF900280CDAD6F80438204623F0BB
:100C44000103C6F8043802F0ADFA4FF000422368FD
:100C54005A61206801F068F902050AD5D6F8083807
:100C6400DB0702D5204602F085FA4FF400622368C0
:100C74005A61206801F058F9C7042ED506F50067BB
:100C84007B68102123F001037B60206800F01AFFC9
:100C9400FF22616806F51063514540F05B814FF017
:100CA400FF33BB61FB6904F56B7143F00113FB6116
:100CB4007B69206843F00B037B613B6943F00B03C2
:100CC4003B61D6F8003823F4FE63C6F8003801F01F
:100CD40078F94FF4805223685A61206801F024F9AE
:100CE400800416D5206801F051F923680321DA68DD
:100CF400204622F47052DA604022C4E90312DA6812
:100D040042F4A052DA6002F022FA4FF4005223684F
:100D14005A61206801F008F9C3062BD5226893694B
:100D240023F010039361376AC7F34343022B07F0A0
:100D34000F0940F0168147F6F0731F4215D04FF0AB
:100D44001C0808FB0948C7F30A173A46D8F8F411F7
:100D5400304601F07EF8D8F8F4313B44C8F8F43159
:100D6400D8F800321F44C8F800722268936943F02F
:100D740010039361206801F0D7F8070705D52046D2
:100D840002F0E1F9082223685A61206801F0CCF8E6
:100D9400C60207D5E9B2204602F00CFA4FF48012DD
:100DA40023685A61206801F0BFF8800207D5E9B2D0
:100DB400204602F0FBF94FF4001223685A612068C0
:100DC40001F0B2F8410006D5204602F0F7F94FF0E1
:100DD400804223685A61206801F0A6F842070AD5C8
:100DE40023685D686B0702D5204602F0EBF92268A0
:100DF40053682B43536005B0BDE8F08FF80722D544
:100E04005FFA85FB5946206801F0A2F810F0010F43
:100E1400814607D0012008EB4511886059462046D9
:100E240002F080F919F0080F06D0204602F074F998
:100E3400082308EB4512936019F0100F1EBF10220F
:100E440008EB45139A6001357F08DCE61BF0010FBF
:100E540063D0EBB219462068009301F083F810F0D8
:100E6400010F80460FD001210122D6F83438A94061
:100E740023EA0103C6F8343809EB45139A60009954
:100E8400204602F058F918F0080F1EBF082209EB9B
:100E940045139A6018F0100F1EBF102209EB45137A
:100EA4009A6018F0400F1EBF402209EB45139A6068
:100EB40018F0020F1EBF022209EB45139A6018F0C6
:100EC400800F2AD023680193D7E90F32A3EB0208DD
:100ED4003B6B984528BF984608F103039B0802938F
:100EE400019B03F5106303EB45130393039B029AE1
:100EF4009B699BB2934204D9D7E90F32934200D93C
:100F040083B9B8F1000F08DC0121019BA940D3F893
:100F1400342822EA0102C3F8342801354FEA5B0B76
:100F24001C3780E6A3EB02083B6B009A984528BF68
:100F3400984608F103039B080293796B1FFA88F320
:100F4400019800F075FF7B6B43447B633B6C434427
:100F54003B64CBE79A600AF1010AC3F80822203304
:100F64009AE6062B7FF401AF4FF01C08082204F523
:100F74006B71304600F06DFF08FB0948C7F30A1790
:100F8400EEE690F8A82310B5012A04460BD00122FE
:100F940080F8A82384F82410006800F09DFF002046
:100FA40084F8A80310BD0220FCE770B504461C2594
:100FB40048B2002801F07F06B5BF05FB064105FBDA
:100FC4000141283101F5F471C00F0E704870CB70E7
:100FD40094F8A8338A60012B09D00123206884F88F
:100FE400A83300F098FD002084F8A80370BD022007
:100FF400FCE710B51C2204464BB2002B01F07F0025
:10100400B5BF02FB004102FB0141283101F5F47137
:10101400DB0F08704B7094F8A833012B09D001231F
:10102400206884F8A83300F0B7FD002084F8A803F2
:1010340010BD0220FCE738B51C2401F07F056C4389
:1010440004F5F4710444C4F8FC3100230144C4F8E9
:10105400F421C4F8003284F8E93184F8E8510068D6
:101064001DB900F087FE002038BD00F0BFFDFAE78F
:101074001C2301F00F0103FB0101B1F800027047CA
:1010840038B51C2401F07F056C4304F128010444A5
:10109400E3630023236401230144626384F8293059
:1010A40084F8285000681DB900F064FE002038BDA3
:1010B40000F09CFDFAE71C2238B54BB2002B01F07E
:1010C4007F05B4BF02FB050102FB01014FF00102E1
:1010D400B4BF283101F5F471DB0F8A700D704B70C9
:1010E40090F8A833044693420ED080F8A8230068F1
:1010F40000F0BFFE25B904F56B71206800F061FFB4
:10110400002084F8A80338BD0220FCE738B51C226F
:10111400054600244BB2002B01F07F00B5BF02FB53
:10112400005102FB0151283101F5F471DB0F8C7081
:1011340008704B7095F8A833012B09D00123286857
:1011440085F8A83300F0B0FE204685F8A84338BDE2
:101154000220FCE790F8A83310B5012B044610D008
:10116400012380F8A8330B06006807D501F07F013E
:1011740000F0A8FC002084F8A80310BD00F0B4FC23
:10118400F8E70220F9E7006870B5436A120419B958
:1011940013438362002070BD0025846A4E1E03EB56
:1011A4001443ECB2B44205F1010505DB3F311343AE
:1011B40000EB81004360EDE7403400EB8404646895
:1011C40003EB1443EDE7036800205962704770474E
:1011D40003682DE9F341DB07054614D42B689F0708
:1011E40062D42B68190700F199802B685A0700F123
:1011F400C380EA6A002A40F031812A6A002A40F05A
:101204008481002014E0904C636803F00C03042BE9
:1012140007D0636803F00C03082B0CD16368DE036A
:1012240009D523689C03D9D5AB68002BD6D10120FE
:1012340002B0BDE8F081AB68B3F5803F10D12368FC
:1012440043F480332360FFF7ADF90646236898031F
:10125400C4D4FFF7A7F9801B6428F7D90320E7E774
:101264009BB9236823F480332360236823F4802309
:101274002360FFF797F9064623689903AED5FFF775
:1012840091F9801B6428F7D9E8E7B3F5A02F236808
:1012940003D143F480232360D1E723F48033236014
:1012A400236823F48023CDE7674C636813F00C0FA5
:1012B40007D0636803F00C03082B10D16368DA03CA
:1012C4000DD423689B0702D56B69012BAFD123682A
:1012D400AA6923F0F80343EAC203236081E76A6939
:1012E4005A4B6AB101221A60FFF75CF9064623687B
:1012F4009F07ECD4FFF756F9801B0228F7D9ADE716
:101304001A60FFF74FF90646236898077FF569AF1F
:10131400FFF748F9801B0228F6D99FE7EA694A4C8F
:101324004B4BDAB101221A60FFF73CF90646636AB7
:101334009B070DD54FF4FA52464B1B68B3FBF2F3EF
:10134400019300BF019B5A1E0192002BF9D14CE777
:10135400FFF728F9801B0228E9D97FE71A60FFF715
:1013640021F90646636A9F077FF53FAFFFF71AF935
:10137400801B0228F6D971E7334CE369DE0024D4DC
:101384000127E36943F08053E361E36903F0805389
:101394000093009B304E3368D80518D52B69012B78
:1013A40026D1236A43F001032362FFF7FBF841F2DD
:1013B40088368046236A9A073FD5002F3FF419AF39
:1013C400E36923F08053E36113E70027E2E733681E
:1013D40043F480733360FFF7E5F880463368D9053A
:1013E400DCD4FFF7DFF8A0EB08006428F6D935E772
:1013F400ABB9236A41F2883823F001032362236ADC
:1014040023F004032362FFF7CDF80646236A9B0703
:10141400D3D5FFF7C7F8801B4045F7D91EE7052B46
:10142400236A03D143F004032362BAE723F00103E0
:101434002362236A23F00403B6E7FFF7B3F8A0EBB3
:101444000800B042B6D909E7001002400000424249
:1014540080044242AC000020007000404F4C63689E
:10146400D80308D5636803F00C03082B03D1E36A9F
:10147400D9033FF5DCAE022A33D12368DA0006D55E
:10148400E36A6A6B03F0F00393427FF4D0AE002367
:10149400434E3360FFF786F8074623681B011AD4CE
:1014A400E36A6A6B23F0F0031343E362E36A2A6B93
:1014B40023F470631343E36201233360FFF772F88C
:1014C400064623681F013FF598AEFFF76BF8801BB3
:1014D4006428F6D9C2E6FFF765F8C01B6428DCD996
:1014E400BCE60022E36A23F48033E3622C4B1A60E7
:1014F400FFF758F80646236818017FF57EAEFFF71C
:1015040051F8801B6428F6D9A8E6244C636803F0DC
:101514000C03082B3FF48BAE0023224E022A3360C7
:101524002FD1FFF73FF807462368990123D46B6A4C
:10153400B3F5803F09D1E26A69680A43E262E26A6C
:10154400E96822F00F020A43E262A96A62680B4367
:1015540022F474121343636001233360FFF722F80B
:10156400054623689A013FF54CAEFFF71BF8401B74
:101574000228F6D972E6FFF715F8C01B0228D3D962
:101584006CE6FFF70FF8054623689B017FF539AE3B
:10159400FFF708F8401B0228F6D95FE60010024066
:1015A4006800424260004242F0B589B06A462C4B62
:1015B40003F10805144618685968083303C4AB429C
:1015C4002246F7D118689B882060A380254B04AC81
:1015D40003F11005224618685968083303C2AB4268
:1015E4001446F7D120494B6803F00C02042A35D085
:1015F400082A02D01D4809B0F0BDC3F3834208A8ED
:101604000244DB0312F8206C25D5CB6A03F00F03E8
:10161400034413F8102CCB6A13F4803F144B15D0F9
:10162400CF6ACC6AC4F303240234A4FB0645A4FBAA
:10163400030103FB0511C7F303130133A3FB0223C7
:10164400FEF7EEFD0D2ED6D14008D4E703FB06F0DD
:10165400B0FBF2F0F6E707487043CCE70448CAE76A
:10166400A4360008B23600080010024000127A00C6
:1016740040787D0100093D00534A2DE9F04113688B
:10168400054603F007038B420E4628D329688C07CE
:1016940032D4CA0745D44C4A136803F00703B34253
:1016A4007FD82A68494C12F0040F40F08580130754
:1016B40006D563682A6923F4605343EAC20363606E
:1016C400FFF772FF6368424AC3F30313D35CD84045
:1016D400404B18600020FEF725FF00200AE0136845
:1016E40023F007030B431360136803F007038B42D3
:1016F400CCD00120BDE8F081344B11F0040F1EBFA3
:101704005A6842F4E0625A60080742BF5A6842F4D9
:1017140060525A605A68A86822F0F00202435A6084
:10172400B7E76A68294C012A23681BD113F4003FE8
:10173400DFD0636841F2883823F003031343636006
:10174400FEF730FF6B680746012B13D1636803F083
:101754000C03042B9FD0FEF725FFC01B4045F5D991
:101764000320C7E7022A02D113F0007FE0E713F059
:10177400020FDDE7022B0FD1636803F00C03082B83
:1017840089D0FEF70FFFC01B4045F5D9E8E7FEF707
:1017940009FFC01B4045E3D8636813F00C0FF6D172
:1017A40079E7136823F0070333431360136803F0E6
:1017B4000703B3429DD174E76368E96823F4E063E7
:1017C4000B43636073E700BF002002400010024037
:1017D400D9360008AC00002003682DE9F34113F06A
:1017E400010F0546574C1FD0E369D90047D40127A0
:1017F400E36943F08053E361E36903F080530193A9
:10180400019B514E3368DA053BD5236A13F44073C8
:101814004BD1236A6A6823F44073134323621FB1D4
:10182400E36923F08053E3612A68910705D563686F
:10183400A96823F440430B436360530705D5E36A67
:10184400E96823F400330B43E362170705D5E36A21
:101854002A6923F480231343E362E36A9E0342D498
:10186400E36A58033FD4286810F010001AD0636864
:10187400EA6923F4800313436360002012E0002725
:10188400BFE7336843F480733360FEF78BFE804612
:101894003368DB05B9D4FEF785FEA0EB08006428A5
:1018A400F6D9032002B0BDE8F0816A6802F4407200
:1018B4009A42AED00120254A236A1060002023F406
:1018C4004071DE0710602162A3D5FEF76BFE41F282
:1018D40088380646236A98079BD4FEF763FE801B6C
:1018E4004045F7D9DDE72368D90022D42368A969E4
:1018F4005A0104D5E26A02F0F0028A421FD1E36A77
:1019040023F0F0030B43E362E36A6A6923F4704350
:1019140013430122E3620E4B1A60FEF743FE0646B0
:1019240023689B009FD4FEF73DFE801B6428F7D9F3
:10193400B7E7E36A6A6903F47043934293D00120E2
:10194400B0E700BF00100240007000404004424273
:101954007000424284B038B505AD85E80E00C36816
:10196400044643F04003C36000F03CFB4FF4803373
:101974000020A363BDE8384004B07047836843F097
:101984000103836000207047836823F001038360B0
:101994000020704708B5C368012923F0C043C36021
:1019A40008D1C36843F00053C3603220FEF700FE41
:1019B400002008BD0029F8D1C36843F08043C36008
:1019C400F3E7000084B0F8B5044607A880E80E00E9
:1019D40000230F461E4603F14002013304EB82024A
:1019E4000F2B5660F7D1A36B032143F40023A363A9
:1019F400C4F8006ED4F800382046C4F8003800F06B
:101A040083F81021204600F05DF8204600F06CF8C1
:101A14004FF0FF33002204F500652E6111466E611C
:101A24004FF09040AB61EE61FF2604F51063BA42BB
:101A34002DD100214FF090460846FF2704F530636E
:101A44008A4230D12B6923F480732B610023A36174
:101A54006FF080436361A36943F01003A361A2693B
:101A6400174B1343A3610B9B1BB1A36943F00803FA
:101A7400A3610D9B0020012B01BFA36943F08043A8
:101A840043F00403A361BDE8F84004B07047D3F801
:101A940000C00132BCF1000FB4BF186019601961B5
:101AA4009E602033C3E7D3F800C00131BCF1000FBE
:101AB400B4BF1E60186018619F602033C0E700BF88
:101AC40000383C80890141F02001064A0161013A55
:101AD40005D0036913F02003F9D118467047032099
:101AE400704700BF410D03001023064A0361013A09
:101AF40005D0036913F01003F9D118467047032089
:101B0400704700BF410D0300D0F800381943C0F8F6
:101B1400001800207047F0B54B780F7803B1CF80E0
:101B2400CE780124022E04BF00220A7100F500625F
:101B3400012B04FA07F44FEA4715D36917D1A4B26D
:101B44001C43D46100F5106043591A040DD48A680B
:101B54004459C2F30A0242F0805343F4004343EA77
:101B6400864343EA8753234343510020F0BD43EAAD
:101B74000444D46100F5306043591B04F5D48968EA
:101B84004359C1F30A0141F0805242F4004242EA4F
:101B940086421A434251E8E7012310B50C7849788C
:101BA40000F50062012903FA04F3D16B4FEA4414EF
:101BB4000ED19BB2DB431940D163D16900F51060AB
:101BC4000B40D361035923F400430351002010BD9B
:101BD4006FEA03431940D163D16900F530600B40CB
:101BE400D361035923F400430351EFE72DE9F8438C
:101BF40091F801C00A78BCF1010F4FEA42154B6914
:101C0400CE78DFF868E1DFF8688171D100F51067FC
:101C14007C1903BBD4F810C0012E0CEA0E0EC4F8D4
:101C240010E0D4F810C04CF4002CC4F810C0D4F860
:101C340010C00CEA0808C4F8108040D07C59012E6A
:101C440044F004447C5103D19BB2C96800F0F0F81D
:101C54000020BDE8F883D4F81090012E09EA0808A2
:101C6400C4F81080D4F8108008EA0E0ED1F8088069
:101C7400C4F810E008EB030E0EF1FF3EBEFBF8F8CB
:101C8400DFF8E4E0D4F810900EEAC84E4EEA090EEC
:101C9400C4F810E0D4F81080C3F3120E4EEA080E14
:101CA400C4F810E014D1D4F810C02CF0C04CC4F81F
:101CB40010C0D4F810C04CF0005CC4F810C0D0F8C8
:101CC4000848E4050FD57C5944F080547C51B5E7AD
:101CD400D0F834480CFA02FC4CEA040400F5006E17
:101CE400C0F83448AAE77C5944F000547C51A5E775
:101CF40000F530677C19226902EA08022261226930
:101D040002EA0E0222618A68D3B92369C2F312027D
:101D14001A432261236943F400232361012E0AD16B
:101D2400D0F8083813F4807F7B590CBF43F000537C
:101D340043F080537B517B5943F004437B5187E745
:101D44001344013BB3FBF2F30749D4F810C001EA92
:101D5400C3419BB25A4341EA0C0121612169C2F398
:101D640012020A432261D9E70000F81FFFFF07E0CF
:101D74000000F8FFF0B54B7891F800E0012B4FEA32
:101D84004E144D69284E294F34D100F5106C0CEBDC
:101D940004031A69D5B932401A611A6942F400225F
:101DA4001A611A693A401A614B693BB10123D0F8B0
:101DB400342803FA0EF31343C0F834385CF80430C3
:101DC40043F004434CF804300020F0BD3A401A615B
:101DD4001A6932401A618A68AA4238BF4A611A698C
:101DE40042F400221A614A691D69C2F312022A43AD
:101DF4001A61D9E700F5306003191A693A401A618B
:101E04001A6932401A618A6805B14A611969C2F3D4
:101E1400120241F40021196119690A431A61035934
:101E240043F004430351CFE7FFFF07E00000F8FF4E
:101E340010B50024033300F580509B1000EB0232F0
:101E44009C4201D1002010BD51F8240001341060DF
:101E5400F6E7002310B50332921000F58050934248
:101E640002D101EB830010BD046841F82340013323
:101E7400F5E74A780B78012A4FEA431309D100F5B4
:101E84001060C258002A09DBC25822F08042C250B6
:101E940004E000F53060C258002AF5DAC25842F472
:101EA4000012C250002070470B78CA7849785B0151
:101EB40001290CBF00F5106000F53060C158023AEA
:101EC400D2B221F40011C150012A9EBFC25842F07F
:101ED4008052C25000207047D0F80038090123F422
:101EE400FE63C0F80038D0F8003801F4FE611943ED
:101EF400C0F800180020704708B5D0F8043823F063
:101F04000203C0F804380320FEF752FB002008BD8A
:101F140008B5D0F8043843F00203C0F804380320AD
:101F2400FEF746FB002008BD4269806910407047F7
:101F3400D0F8183800F50060C0691840000C7047EC
:101F4400D0F8183800F50060C069184080B27047B6
:101F540000F5306303EB411100F500608A684069C5
:101F64001040704710B5D0F81048D0F8343800EB62
:101F74004110CB4000F51060DB018068DBB22343E5
:101F8400184010BD406900F001007047D0F80039D6
:101F940023F4FF6323F00703C0F8003900F500635E
:101FA4009A6802F00602042A02BFD0F8002942F01F
:101FB4000302C0F800295A68002042F480725A6073
:101FC400704700F53063002018611A6942F400225A
:101FD4001A611A6942F018021A611A6942F0C04281
:101FE4001A61704780B485B000AF78600023FB604D
:101FF400FB680133FB60FB68124A934201D9032357
:102004001BE07B681B69002BF2DA0023FB607B6812
:102014001B6943F001027B681A61FB680133FB60B2
:10202400FB68084A934201D9032306E07B681B69D5
:1020340003F00103012BF0D0002318461437BD46EA
:1020440080BC7047400D0300202303800048704784
:102054000800002020230380004870472800002047
:102064002023038000487047480000200A2303808F
:102074000048704768000020037C10B50446C3B9CB
:102084004FF400730222012101F0D8F84FF40073D9
:1020940002228121204601F0D1F840F66C0001F0C3
:1020A40057F9C4F8180258B1204600F0BBF80020D4
:1020B40010BD40230222012101F0C0F84023E7E7CC
:1020C4000120F5E710B50446012101F0C7F881218C
:1020D400204601F0C3F8204600F0CCF8D4F81802EA
:1020E40020B101F039F90023C4F81832002010BDE2
:1020F4002DE9F0410B78064613F060040D46D0F844
:1021040018822DD0202C4AD14A78FE2A05D0FF2AE5
:1021140019D000F07CFE02241FE04C8884B9CF88DB
:10212400012F0DD11A060BD5D0F81C329B699847A4
:102134003A46C8F800004146304600F08FFE0CE0F5
:1021440029463046E5E74A88002AF9D1CC88002C94
:10215400F6D11B06F4D400F082F82046BDE8F081E5
:102164004F780A2F1DD00B2F1FD0012FF5D10979DD
:1021740001F082F82979304601F070F895F90430BD
:10218400002B337C17DAA3B94FF4007302228121A8
:10219400304601F053F82979304600F013F9002451
:1021A400DBE7012208F10401C7E78B78C8F80430A3
:1021B400D3E74023EAE723B94FF4007302223946F8
:1021C400E6E74023FAE708B500F076F8002008BDFA
:1021D40008B500F08DF8002008BD09B1C0F81C1244
:1021E4000020704770B5D0F81842054694F81838A6
:1021F4003BB9D4F8143823B1637A13B9012101F03F
:1022040049F88121284601F045F8637A022B08D168
:1022140004F60C022846BDE870401F23012101F09A
:1022240083B870BD70B50446D0F8185200202881D8
:10223400A5F85C08D4F81C321B6898470121204695
:1022440001F01AF88121204601F016F805F60C0277
:102254002046BDE870401F23012101F065B84FF40A
:102264008073D0F81822012113811F2302F60C0277
:1022740001F05AB80022D0F818321A7270470000E0
:1022840070B50C4BD0F818420546C4F82C3800231E
:1022940084F83818237204F62C020D23812101F0EE
:1022A40035F804F60C022846BDE870401F230121CE
:1022B40001F03AB85553425310B5D0F818320446D9
:1022C4001A7A022A03D001D3042A0ED910BD03F6C8
:1022D4001B0293F8191800F09FF80028F6DA012180
:1022E4002046BDE81040FFF7CBBF0021F9E700000E
:1022F40070B5D0F818420546267A16B1012E56D08C
:1023040070BDD4F810380121C4F83038D4F814382A
:10231400C4F8343801F016F81F2894F819180BD1B2
:10232400D4F80C28264B9A4206D1012904D894F8F3
:102334001A38013B0F2B0BD920230522284600F025
:102344008FFA022363722846BDE87040FFF74ABF44
:1023540004F61B02284600F05FF80028237A07DA07
:10236400052BF0D101212846BDE87040FFF788BF56
:10237400013B022BC4D961890029F4D0D5F8182275
:102384002846D2F8143882F83868994228BF19468A
:10239400D2F834385B1AC2F83438042313728BB27F
:1023A40004F10C028121BDE8704000F0AFBF04F6D7
:1023B4001B0294F8191800F02FF80028A0DAD1E7CE
:1023C4005553424310B5D0F81842637A022B05D115
:1023D400812100F05FFF0023637210BD0A06FCD563
:1023E400012BFAD0BDE810400121FFF749BF10B519
:1023F400D0F81802120290F85D3800EBC3040133E0
:10240400DBB2042B08BF002384F83C18C4F840282E
:1024140080F85D3810BD00002DE9F74313780546B8
:102424001E2B0F4690460FD013D8122B00F0AD8010
:1024340005D8002B5CD0032B76D0202207E21A2B80
:1024440000F0C2801B2BF8D10024D5F818325C812F
:1024540066E0282B00F0058125D8232B00F0D280DC
:10246400252BEAD1D0F81862D0F81C3206F65E02A9
:102474005B6806F50661384698470446002840F034
:10248400D680D6F860383082013B1A0E32731A0CAB
:102494007273F3731A0AB6F85E38B2731A0AF374D5
:1024A400B2740823DBE02F2B00F0BB815A2B00F021
:1024B4009A802A2BC1D1D0F81862337A002B40F0CD
:1024C400728196F91838002BB7DBD0F81C32084615
:1024D4009B689847002840F0AA80D5F81C323846FB
:1024E400DB6898470446002800F02F8127229FE0EC
:1024F400D0F81862D6F81438002B9ED1D0F81C32CC
:1025040008469B689847044648B13A220221284667
:10251400FFF76DFF052333724FF0FF3400E0708145
:10252400204603B0BDE8F083D0F81832002003F150
:102534000C0203F11E0102F8010B8A42FBD1702246
:102544001A730C2293F85D18DA7493F85C2891429C
:1025540012D003EBC20191F83C4801329C7391F80C
:102564004148D2B21C7691F84018042A597614BF17
:1025740083F85C2883F85C0812225A8198F80420B6
:10258400122A98BF5A810024CAE798F80130D0F87B
:102594001822DB0715D4D0F81C32D969242303FB95
:1025A40007173B7998F8041005338B4228BF0B4674
:1025B4005381002BE7D0013B9BB2F85CD118087320
:1025C400F7E70723A34FF3E70822D0F81832A2490C
:1025D4005A8103F113020B3311F8010D02F80109BA
:1025E4009A42F9D1CFE70822D0F818329B495A8190
:1025F40003F113020B3311F8010D02F801099342A0
:10260400F9D1C0E70021D0F8186206F10C0306F1F5
:10261400180203F8011B9342FBD1D5F81C320DF1CB
:1026240002025B6801A938469847044618B13A2269
:1026340002212846FDE00823F373019B7075013BDA
:102644001A0E32741A0C7274F3741A0A0223337554
:10265400BDF80230B274F3751A0A0C23B275738193
:102664005EE7D0F81842237A6BBB94F91838002B34
:10267400BFF6E3AED0F81C3208469B6898470028A2
:10268400D5D1D8F80220D5F8181212BAC4F86428A3
:10269400B8F80730D1F860185BBA9BB29818884232
:1026A400C4F8683800F2D28002212172B4F85E18AE
:1026B4004A434B43C4F86428D4F81428C4F868384F
:1026C40093427FF4BAAE4FF40063D5F81862638185
:1026D400D6F86838B6F85E28B3F5006F28BF4FF413
:1026E40000639846B3FBF2F3D6F86418D5F81C02DD
:1026F40006F10C04D0F81090B1FBF2F29BB2214623
:102704003846C847002802DA1122042191E71FFA4B
:1027140088F322468121284600F0F8FDD6F8643873
:10272400D6F868484344C6F86438D6F83438A4EB7D
:102734000804A3EB0803C6F86848C6F83438002C2C
:102744007FF421AF03233372EAE6D8F8021009BA02
:10275400C6F86418B8F807305BBA9AB2D5F81832DC
:102764008818D3F86038C6F8682898426ED8B6F846
:102774005E3859435343D6F81428C6F86418934274
:10278400C6F868387FF459AEB3F5006F4FF0010115
:1027940028BF4FF4006331729BB206F10C02284645
:1027A40000F0C2FDBCE6D6F86848B6F85E28B4F579
:1027B400006F28BF4FF40064B4FBF2F3D6F864183A
:1027C400D0F81C0206F10C08D0F81490B1FBF2F218
:1027D4009BB241463846C847002801DA032294E7F1
:1027E400D6F86438D6F834282344C6F86438D6F8C2
:1027F40068381B1B141BC6F86838C6F8344823B95C
:1028040000212846FFF73CFDBDE6B3F5006F28BF65
:102814004FF4006342469BB20121284600F084FD38
:10282400B1E65478D0F8183214F0020404D024220B
:102834000521FFF7DCFD6FE6D3F86418B3F86828C8
:102844000A44D3F860188A427FF601AE212205219A
:10285400EFE600BFD2360008D2360008CA360008B8
:1028640010B5D0F818021B0290F85D1800EBC104F3
:102874000131C9B20429C4F8403808BF002384F8E0
:102884003C2814BF80F85D1880F85D3810BD08B589
:1028940080B1D0F8143213B10023C0F8143209B156
:1028A400C0F810120123027080F8FC3100F08EFC95
:1028B400002008BD0220FCE719B1C0F81412002062
:1028C40070470220704708B500F0AAFC002008BD3C
:1028D40008B5D0F814320BB9022008BD1B6898471C
:1028E4000028FAD0F8E708B5D0F814325B689847A6
:1028F400002008BD38B500F502750446284600F0EE
:1029040072FA012394F80812C4F8F431B4F80E32C0
:10291400C4F8F83101F01F03012B0ED007D3022BAA
:1029240010D001F08001204600F0B4FC03E02946F9
:10293400204600F0E7F8002038BD2946204600F084
:10294400DBF9F8E72946204600F0EEF9F3E738B55D
:102954000446154611BBD0F8F431032B0FD1D0F83F
:102964000C31D0F8102193420BD99B1A9A4228BFFC
:102974001A46C0F80C3192B2294600F084FA0020BD
:1029840038BDD0F814321B6923B190F8FC21032A16
:1029940000D19847204600F07EFAF0E7D0F81432D0
:1029A4009B69002BEBD090F8FC21032AE7D19847D0
:1029B400E5E770B5134604460E4600293DD1D0F82C
:1029C400F421022A0FD1D0E90752954214D9AA1A48
:1029D400C261194692B200F04EFA33461A461946BD
:1029E400204600F0A1FC94F80032012B02D1002310
:1029F40084F80032002070BD8369B3FBF2F502FB5A
:102A0400153565B99A420AD8D0F8F821934206D20E
:102A14002A4600F030FAC4F8F8512B46DEE7D4F821
:102A24001432DB682BB194F8FC21032A01D120462F
:102A34009847204600F03AFAD5E7D0F814325B699B
:102A4400002BD7D090F8FC21032AD3D19847D1E7A3
:102A5400002238B5044640251146402300F0EEFB21
:102A64002B46C4F8105100228021204600F0E6FBDA
:102A7400012384F8FC31D4F8183225622BB1D4F840
:102A8400143221795B6820469847002038BD0174D0
:102A94000020704790F8FC3180F8FD31042380F861
:102AA400FC310020704790F8FD3180F8FC310020A3
:102AB400704708B590F8FC21032A04D1D0F81432E9
:102AC400DB6903B19847002008BD0020704700204F
:102AD400704700207047012208B580F8FC21D0F827
:102AE4001422017952689047002008BD10B50446AD
:102AF400802100F0CFFB2046BDE81040002100F00B
:102B0400C9BB000037B54B7804460D46092B76D86F
:102B1400DFE813F0C900E5007500D90075006D0009
:102B24000A007500B9008D004B881A0A013A062A7A
:102B340065D8DFE802F0041C296464495200D0F827
:102B440010321B680DF10601207C9847BDF8062061
:102B5400002A67D0EB88002B64D09A4228BF1A461B
:102B64000146ADF80620204600F078F95AE0027CD0
:102B7400D0F8143232B99B6A0DF10600984702234B
:102B84004370E3E7DB6AF7E7DBB2052B37D8DFE80E
:102B940003F003070B0F1317D0F810325B68D1E76B
:102BA400D0F810329B68CDE7D0F81032DB68C9E763
:102BB400D0F810321B69C5E7D0F810325B69C1E761
:102BC400D0F810329B69BDE7037CC3B9D0F8143246
:102BD4000DF106005B6B9847B8E7037C7BB9D0F82E
:102BE40014320DF106001B6B98470723C8E78B8846
:102BF4002BB9CB881BB990F8FC31032B03D12046A9
:102C0400FFF774FF0EE08D7805F07F0580F8FE5124
:102C1400294600F06DFB204600F03DF92DB102235A
:102C240084F8FC31002003B030BD0123F8E7897833
:102C3400304D01292970E2D890F8FC31022B0CD0D8
:102C4400032BDCD1B1B90223416080F8FC31FFF7DA
:102C54004AFE204600F01FF9E4E70029F9D00121DB
:102C64000323416080F8FC312046FFF731FE02283F
:102C7400EFD1C4E741680129EBD0C9B2FFF733FEB5
:102C840029786160F0E7CA88012AB8D190F8FC314C
:102C9400022B03D0032BB2D1011D64E701460023AC
:102CA40041F8083F5FE790F8FC31023B012BA6D8BE
:102CB4000123C360D0F804320BB10323C3600222A2
:102CC40004F10C014FE74B88012BABD1C4F804325B
:102CD400D4F8143229469B6820469847B9E790F8FF
:102CE400FC31023B012B8AD84B88012B9AD100235B
:102CF400ECE700BF3C01002038B590F8FC310446F5
:102D0400032B0D460DD10B79012B0AD8D0F81432C0
:102D14009B689847EB8813B9204600F0BCF8002064
:102D240038BDFFF7E3FEFAE738B50B78044603F045
:102D34006003202B0D4605D1D0F814329B689847C8
:102D4400002038BD6A788B88012AD9B21CD029D3D7
:102D5400032AF5D190F8FC31022B3DD0032B03D08C
:102D64002046FFF7C3FEEBE76B881BB94A0601D088
:102D740000F090FAD4F8143229469B68204698470C
:102D8400204600F088F8DBE790F8FC31022B23D0D2
:102D9400032BE5D16B88002BD2D14B06F0D000F089
:102DA40087FAE7E790F8FC21022A15D0032AD7D145
:102DB40001F07F051B0600EB05154CBF143505F526
:102DC400827500F083FA60B101232B600222294648
:102DD400204600F043F8B3E74A06B1D000F05AFAAF
:102DE400AEE72860F2E70B7803704B784370CA783B
:102DF4008B7803EB022343804A790B7903EB02239C
:102E04008380CA798B7903EB0223C380704710B5A2
:102E14000446802100F03EFA2046BDE8104000211F
:102E240000F038BA30B588B105462B1A15F8014BB5
:102E3400DBB2002CF9D101335B0013800B70032348
:102E44004B700223013810F8015F05B930BD5A1CDC
:102E5400CD54D2B20233DBB28C54F4E713460222CF
:102E640010B5C0F8F421C0E906330A46002100F089
:102E74004DFA002010BD08B513460A46002100F0A3
:102E840045FA002008BD08B513460A46002100F0A3
:102E94004BFA002008BD08B50423C0F8F431002320
:102EA4001A46194600F032FA002008BD08B5052379
:102EB400C0F8F43100231A46194600F035FA002010
:102EC40008BD000070B510269CB03246002112A83F
:102ED40000F0D1FB1422002101A800F0CCFB00215A
:102EE400202206A800F0C7FB02254FF480330422F9
:102EF4000F93CDE91032CDE916534FF4801301241A
:102F0400CDE918354FF4C06240230EA8CDE91A2349
:102F14000E941394FEF75CF90F234FF48062CDE90D
:102F240001350023214601A8CDE903320593FEF7BC
:102F3400A3FB4FF4800306A80D930696FEF74CFC02
:102F4400014B1C601CB070BD700042427FB5FDF7A0
:102F54000BFBFFF7B7FF00F019FB1022002102A8BA
:102F640000F089FB164B4FF400419A69154842F072
:102F740020029A619A694FF4004402F02002009200
:102F8400009A9A69012542F004029A619B69002221
:102F940003F004030193019BFDF788FD0022022343
:102FA40002A90848CDE90423CDE90245FDF79EFCBA
:102FB4002A4621460348FDF779FD00F065F8FEE74F
:102FC4000010024000140140704700000E4B82B014
:102FD4009A6942F001029A619A6902F00102009230
:102FE400009ADA6942F08052DA61DB69074A03F039
:102FF40080530193019B536823F0E06343F0007313
:10300400536002B0704700BF00100240000001404E
:103014007047FEE7FEE7FEE7FEE77047704770473C
:10302400FDF7B4BA0148FDF7C6BD00BFFC0B002094
:10303400124B1A6842F001021A605968104A0A4099
:103044005A601A6822F0847222F480321A601A6874
:1030540022F480221A605A6822F4FE025A601A6826
:1030640022F0A0521A604FF47F029A600022DA62C2
:103074004FF00062034B9A60704700BF001002409B
:103084000000FFF000ED00E008B500220E490F48F3
:10309400FFF7FDFB08B1FFF797FF0D490B48FFF75A
:1030A4000BFC08B1FFF790FF0A490848FFF795F8B1
:1030B40008B1FFF789FF0548FFF705FC18B1BDE823
:1030C4000840FFF781BF08BDE4000020D8090020B4
:1030D4007400002000010020036807B5B3F1A04F7D
:1030E40017D103F1704303F504335A69432042F4C2
:1030F40080525A6100225B69114603F480530193A4
:10310400019BFDF779FA432003B05DF804EBFDF76A
:10311400A7BA03B05DF804FB00F56B71D0F8DC03CB
:10312400FFF7E8BB1C2303FB0103D0F8DC03D3F84F
:10313400F421FFF70CBC1C2303FB0103D0F8DC03D0
:103144005A6BFFF736BCD0F8DC03FFF7B2BCC1689A
:1031540010B5044621B1022901D0FFF735FF012142
:10316400D4F8DC03FFF793FCD4F8DC03BDE810408B
:10317400FFF76EBC10B50446D0F8DC03FFF78AFCF9
:103184002268D2F8003E43F00103C2F8003EA3696E
:1031940023B1034A136943F00603136110BD00BF52
:1031A40000ED00E0D0F8DC03FFF77DBCD0F8DC03D1
:1031B400FFF78DBCD0F8DC03FFF787BCD0F8DC0345
:1031C400FFF787BCD0F8DC03FFF785BC08B50278AD
:1031D40012BB124B0421C3F8DC03C0F820324FF0B9
:1031E400A040C3E9000102211846D960C3E90522C1
:1031F400DA61FDF760FC08B1FFF7E6FE80210748BD
:10320400FDF7E1FF402200210448FDF7BCFF8022C6
:1032140001210248FDF7B7FF002008BDFC0B002088
:1032240008B5D0F82002FDF7AFFC032896BF024B87
:103234000220185C08BD00BFF136000810B51C461A
:10324400D0F8200213462246FDF7AFFE032896BFAE
:10325400014B0220185C10BDF136000808B5D0F807
:103264002002FDF7C6FE032896BF024B0220185C1D
:1032740008BD00BFF136000808B5D0F82002FDF7FC
:1032840069FF032896BF024B0220185C08BD00BFEB
:10329400F136000808B5D0F82002FDF70CFF03282A
:1032A40096BF024B0220185C08BD00BFF13600082F
:1032B40008B5D0F82002FDF729FF032896BF024B7A
:1032C4000220185C08BD00BFF13600081C2211F072
:1032D400800FD0F820321BBF01F07F0102FB0131C7
:1032E40002FB013191F82A0008BF91F8EA01704706
:1032F40008B5D0F82002FDF744FE032896BF024B20
:103304000220185C08BD00BFF136000808B5D0F8EB
:103314002002FDF7B5FE032896BF024B0220185C7D
:1033240008BD00BFF136000808B5D0F82002FDF74B
:1033340082FE032896BF024B0220185C08BD00BF22
:10334400F136000808B5D0F82002FDF791FE08BD5B
:1033540000487047400100207047000012230148D4
:103364000B807047B0000020042301480B80704795
:10337400C4000020002370B51E46050FECB2092DD1
:1033840094BF3034373401F8134001EB4304013364
:103394006670DCB2A2424FEA0010EED870BD0000A5
:1033A4001A2310B50B80094B186808331B68C01822
:1033B4000AD0074B08221C680649FFF7DBFF0422EA
:1033C40005492046FFF7D6FF044810BDE8F7FF1F64
:1033D400ECF7FF1FCA000020DA000020C80000201C
:1033E40010B5044C0A4604482146FFF71BFD20464D
:1033F40010BD00BFDC0F00206037000810B5044C7E
:103404000A4604482146FFF70DFD204610BD00BFC3
:10341400DC0F00207337000810B5044C0A4604483A
:103424002146FFF7FFFC204610BD00BFDC0F002043
:103434008637000810B5044C0A4604482146FFF7B5
:10344400F1FC204610BD00BFDC0F002091370008BE
:103454000020704778230B604FF400630020138032
:103464007047002070477FB501230022CDE9040393
:1034740001A902A8CDE90223FDF7ECF907B05DF834
:1034840004FB70B5044600F500650E1AA119052069
:10349400F4E80223FDF76AF9AC42F7D170BD38B500
:1034A4000D4602F580320832D4022046FFF7DBFFD6
:1034B40028462146FFF7E5FF002038BD08B5084639
:1034C40002F580310831DA02C90200F0C9F800209F
:1034D40008BD000030B5ADF6040D4FF400620021C4
:1034E400684600F0C8F86A46214B03F138051446D3
:1034F40018685968083303C4AB422246F7D11868E8
:103504009B882060A3804AF655231A48ADF8FE3103
:10351400FFF7A9FF68461749FFF7B3FF4FF40062AE
:103524000021684600F0A7F84FF6F873ADF80030B4
:10353400FF2311488DF80230FFF795FF68460E49C6
:10354400FFF79FFF6B460D4A1068516803C311894A
:10355400927A19809A70082309488DF80B30FFF786
:1035640082FF07496846FFF78CFF0DF6040D30BD56
:10357400F836000800400008004800082337000817
:1035840000500008002070470020704738B5FDF750
:10359400B1F800220A4B0B4D0B4803F17841A1F519
:1035A400804113F8014B695C8C4218BF01228342AD
:1035B400F3D1012A03D1BDE83840FFF78BBF38BDF2
:1035C40000400008F83600083E400008002103E0EF
:1035D4000B4B5B58435004310A480B4B42189A4238
:1035E400F6D30A4A02E0002342F8043B084B9A420D
:1035F400F9D3FFF71DFD00F00FF8FFF7A7FC7047A4
:10360400B037000800000020200100202001002025
:10361400DC110020FEE7000070B500250C4E0D4CB7
:10362400A41BA410A54209D100F02EF800250A4ECF
:103634000A4CA41BA410A54205D170BD56F8253030
:1036440098470135EEE756F8253098470135F2E7FB
:10365400A8370008A8370008A8370008AC370008C6
:1036640010B5431E0A44914200D110BD11F8014B1C
:1036740003F8014FF7E703460244934200D1704731
:1036840003F8011BF9E70000F8B500BFF8BC08BC5B
:103694009E467047F8B500BFF8BC08BC9E4670470C
:1036A400000004050607080900000000000D0102DF
:1036B400030405060708090A0B0C0D0E0F1000067B
:1036C40000000000000000000000000000000000F6
:1036D40000030080830000000000000000010203DA
:1036E40004060708090000000001020304000201A7
:1036F40002000000EBFE904D53444F53352E300032
:10370400080101000140007800F801003F00FF00BB
:103714000000000000000000800029FECAFECA5319
:10372400544D5F53544F5241474546415431322022
:103734002020008002021F00000053544D2020204E
:10374400202050726F647563742020202020202074
:103754002020302E303100003E00000053544D69CB
:1037640063726F656C656374726F6E696373005323
:10377400544D3332204D6173732053746F726167FB
:1037840065004D534320436F6E666967004D534394
:0C37940020496E74657266616365000078
:0837A000B4CAFF7F0100000024
:0437A800090200080A
:0437AC00E50100082B
:1037B000010000001000000009022000010104C007
:1037C00032090400000208065005070581020002C4
:1037D000000705010200020009022000010104C0E7
:1037E0003209040000020806500507058102400066
:1037F000000705010240000009072000010104C084
:103800003209040000020806500507058102400045
:1038100000070501024000000A0600020000004007
:10382000010000007D200008C9200008F5200008E4
:103830000000000000000000CB210008D521000896
:103840000000000000000000000000004D20000803
:1038500059200008652000087120000800A24A04D1
:10386000120100020000004083042A5700020102F6
:1038700003010000040309041A0300000000000013
:103880000000000000000000000000000000000038
:1038900000000000613300086D330008E5330008C4
:1038A00001340008A53300081D340008393400082D
:1038B00055340008593400088D3500088935000852
:1038C000C1340008A3340008673400083637000804
:04000005080035D1E9
:00000001FF
